{
  "address": "0xbA1c0263AD091FA31e45ae2681DC9B417d79570E",
  "abi": [
    {
      "inputs": [
        {
          "internalType": "address",
          "name": "_nzddToken",
          "type": "address"
        }
      ],
      "stateMutability": "nonpayable",
      "type": "constructor"
    },
    {
      "inputs": [
        {
          "internalType": "address",
          "name": "owner",
          "type": "address"
        }
      ],
      "name": "OwnableInvalidOwner",
      "type": "error"
    },
    {
      "inputs": [
        {
          "internalType": "address",
          "name": "account",
          "type": "address"
        }
      ],
      "name": "OwnableUnauthorizedAccount",
      "type": "error"
    },
    {
      "anonymous": false,
      "inputs": [
        {
          "indexed": true,
          "internalType": "address",
          "name": "buyer",
          "type": "address"
        },
        {
          "indexed": false,
          "internalType": "uint256",
          "name": "amount",
          "type": "uint256"
        },
        {
          "indexed": false,
          "internalType": "uint256",
          "name": "cost",
          "type": "uint256"
        }
      ],
      "name": "EnergyBought",
      "type": "event"
    },
    {
      "anonymous": false,
      "inputs": [
        {
          "indexed": true,
          "internalType": "address",
          "name": "user",
          "type": "address"
        },
        {
          "indexed": false,
          "internalType": "uint256",
          "name": "amount",
          "type": "uint256"
        }
      ],
      "name": "EnergyGenerated",
      "type": "event"
    },
    {
      "anonymous": false,
      "inputs": [
        {
          "indexed": true,
          "internalType": "address",
          "name": "seller",
          "type": "address"
        },
        {
          "indexed": false,
          "internalType": "uint256",
          "name": "amount",
          "type": "uint256"
        },
        {
          "indexed": false,
          "internalType": "uint256",
          "name": "payment",
          "type": "uint256"
        }
      ],
      "name": "EnergySold",
      "type": "event"
    },
    {
      "anonymous": false,
      "inputs": [
        {
          "indexed": true,
          "internalType": "address",
          "name": "previousOwner",
          "type": "address"
        },
        {
          "indexed": true,
          "internalType": "address",
          "name": "newOwner",
          "type": "address"
        }
      ],
      "name": "OwnershipTransferred",
      "type": "event"
    },
    {
      "inputs": [
        {
          "internalType": "uint256",
          "name": "energyAmount",
          "type": "uint256"
        }
      ],
      "name": "buyEnergy",
      "outputs": [],
      "stateMutability": "nonpayable",
      "type": "function"
    },
    {
      "inputs": [
        {
          "internalType": "uint256",
          "name": "amount",
          "type": "uint256"
        }
      ],
      "name": "fundContract",
      "outputs": [],
      "stateMutability": "nonpayable",
      "type": "function"
    },
    {
      "inputs": [
        {
          "internalType": "uint256",
          "name": "amount",
          "type": "uint256"
        }
      ],
      "name": "generateEnergy",
      "outputs": [],
      "stateMutability": "nonpayable",
      "type": "function"
    },
    {
      "inputs": [
        {
          "internalType": "address",
          "name": "user",
          "type": "address"
        }
      ],
      "name": "getUserEnergyBalance",
      "outputs": [
        {
          "internalType": "uint256",
          "name": "",
          "type": "uint256"
        }
      ],
      "stateMutability": "view",
      "type": "function"
    },
    {
      "inputs": [],
      "name": "nzddToken",
      "outputs": [
        {
          "internalType": "contract IERC20",
          "name": "",
          "type": "address"
        }
      ],
      "stateMutability": "view",
      "type": "function"
    },
    {
      "inputs": [],
      "name": "owner",
      "outputs": [
        {
          "internalType": "address",
          "name": "",
          "type": "address"
        }
      ],
      "stateMutability": "view",
      "type": "function"
    },
    {
      "inputs": [],
      "name": "pricePerEnergyUnit",
      "outputs": [
        {
          "internalType": "uint256",
          "name": "",
          "type": "uint256"
        }
      ],
      "stateMutability": "view",
      "type": "function"
    },
    {
      "inputs": [],
      "name": "renounceOwnership",
      "outputs": [],
      "stateMutability": "nonpayable",
      "type": "function"
    },
    {
      "inputs": [
        {
          "internalType": "uint256",
          "name": "energyAmount",
          "type": "uint256"
        }
      ],
      "name": "sellEnergy",
      "outputs": [],
      "stateMutability": "nonpayable",
      "type": "function"
    },
    {
      "inputs": [
        {
          "internalType": "uint256",
          "name": "newPrice",
          "type": "uint256"
        }
      ],
      "name": "setEnergyPrice",
      "outputs": [],
      "stateMutability": "nonpayable",
      "type": "function"
    },
    {
      "inputs": [
        {
          "internalType": "address",
          "name": "newOwner",
          "type": "address"
        }
      ],
      "name": "transferOwnership",
      "outputs": [],
      "stateMutability": "nonpayable",
      "type": "function"
    },
    {
      "inputs": [
        {
          "internalType": "address",
          "name": "",
          "type": "address"
        }
      ],
      "name": "userEnergyBalance",
      "outputs": [
        {
          "internalType": "uint256",
          "name": "",
          "type": "uint256"
        }
      ],
      "stateMutability": "view",
      "type": "function"
    }
  ],
  "transactionHash": "0xf5a06743866f96f3476616c7725dbd768861aaa3e33b4ceca7a852c016c06c7e",
  "args": [
    "0xE91d143072fc5e92e6445f18aa35DBd43597340c"
  ],
  "numDeployments": 1,
  "solcInputHash": "a995eb79f942552578f803e259548436",
  "bytecode": "0x6080604052670de0b6b3a764000060035534801561001c57600080fd5b506040516108df3803806108df83398101604081905261003b916100e0565b338061006157604051631e4fbdf760e01b81526000600482015260240160405180910390fd5b61006a81610090565b50600180546001600160a01b0319166001600160a01b0392909216919091179055610110565b600080546001600160a01b038381166001600160a01b0319831681178455604051919092169283917f8be0079c531659141344cd1fd0a4f28419497f9722a3daafe3b4186f6b6457e09190a35050565b6000602082840312156100f257600080fd5b81516001600160a01b038116811461010957600080fd5b9392505050565b6107c08061011f6000396000f3fe608060405234801561001057600080fd5b50600436106100b45760003560e01c8063c9c1d8ea11610071578063c9c1d8ea1461013d578063cae827cd14610150578063d2a9885b14610179578063e72cffc91461018c578063ecc18f99146101ac578063f2fde38b146101bf57600080fd5b80633519a2f8146100b95780634326ee36146100ce5780635f1af019146100e1578063715018a6146100fd5780638da5cb5b14610105578063bc8a251f1461012a575b600080fd5b6100cc6100c73660046106a4565b6101d2565b005b6100cc6100dc3660046106a4565b61029a565b6100ea60035481565b6040519081526020015b60405180910390f35b6100cc610437565b6000546001600160a01b03165b6040516001600160a01b0390911681526020016100f4565b6100cc6101383660046106a4565b61044b565b600154610112906001600160a01b031681565b6100ea61015e3660046106bd565b6001600160a01b031660009081526002602052604090205490565b6100cc6101873660046106a4565b610583565b6100ea61019a3660046106bd565b60026020526000908152604090205481565b6100cc6101ba3660046106a4565b6105df565b6100cc6101cd3660046106bd565b6105ec565b6101da610627565b6001546040516323b872dd60e01b8152336004820152306024820152604481018390526001600160a01b03909116906323b872dd906064016020604051808303816000875af1158015610231573d6000803e3d6000fd5b505050506040513d601f19601f8201168201806040525081019061025591906106ed565b6102975760405162461bcd60e51b815260206004820152600e60248201526d119d5b991a5b99c819985a5b195960921b60448201526064015b60405180910390fd5b50565b336000908152600260205260409020548111156102f95760405162461bcd60e51b815260206004820152601960248201527f4e6f7420656e6f75676820656e657267792062616c616e636500000000000000604482015260640161028e565b6000670de0b6b3a7640000600354836103129190610725565b61031c9190610742565b33600090815260026020526040812080549293508492909190610340908490610764565b909155505060015460405163a9059cbb60e01b8152336004820152602481018390526001600160a01b039091169063a9059cbb906044016020604051808303816000875af1158015610396573d6000803e3d6000fd5b505050506040513d601f19601f820116820180604052508101906103ba91906106ed565b6103f75760405162461bcd60e51b815260206004820152600e60248201526d14185e5b595b9d0819985a5b195960921b604482015260640161028e565b604080518381526020810183905233917f70c565eaf7e964ec96b0279093ac75b59ac769a3176eb59bfaade53e3ae14e6b91015b60405180910390a25050565b61043f610627565b6104496000610654565b565b6000670de0b6b3a7640000600354836104649190610725565b61046e9190610742565b6001546040516323b872dd60e01b8152336004820152306024820152604481018390529192506001600160a01b0316906323b872dd906064016020604051808303816000875af11580156104c6573d6000803e3d6000fd5b505050506040513d601f19601f820116820180604052508101906104ea91906106ed565b6105275760405162461bcd60e51b815260206004820152600e60248201526d14185e5b595b9d0819985a5b195960921b604482015260640161028e565b3360009081526002602052604081208054849290610546908490610777565b9091555050604080518381526020810183905233917fd4140a8710e346d120724c7f03d85467651741f98efcc0aebf8f91c16121de5d910161042b565b33600090815260026020526040812080548392906105a2908490610777565b909155505060405181815233907fb5c269943b04dc183f299161cb98f249e170faf229995a6eb5c99a69142f3d339060200160405180910390a250565b6105e7610627565b600355565b6105f4610627565b6001600160a01b03811661061e57604051631e4fbdf760e01b81526000600482015260240161028e565b61029781610654565b6000546001600160a01b031633146104495760405163118cdaa760e01b815233600482015260240161028e565b600080546001600160a01b038381166001600160a01b0319831681178455604051919092169283917f8be0079c531659141344cd1fd0a4f28419497f9722a3daafe3b4186f6b6457e09190a35050565b6000602082840312156106b657600080fd5b5035919050565b6000602082840312156106cf57600080fd5b81356001600160a01b03811681146106e657600080fd5b9392505050565b6000602082840312156106ff57600080fd5b815180151581146106e657600080fd5b634e487b7160e01b600052601160045260246000fd5b808202811582820484141761073c5761073c61070f565b92915050565b60008261075f57634e487b7160e01b600052601260045260246000fd5b500490565b8181038181111561073c5761073c61070f565b8082018082111561073c5761073c61070f56fea264697066735822122022b7d47c4e9245126896bd8b3e10708a02a68be98bf6c63f8f575f384015a63664736f6c63430008140033",
  "devdoc": {
    "errors": {
      "OwnableInvalidOwner(address)": [
        {
          "details": "The owner is not a valid owner account. (eg. `address(0)`)"
        }
      ],
      "OwnableUnauthorizedAccount(address)": [
        {
          "details": "The caller account is not authorized to perform an operation."
        }
      ]
    },
    "kind": "dev",
    "methods": {
      "owner()": {
        "details": "Returns the address of the current owner."
      },
      "renounceOwnership()": {
        "details": "Leaves the contract without owner. It will not be possible to call `onlyOwner` functions. Can only be called by the current owner. NOTE: Renouncing ownership will leave the contract without an owner, thereby disabling any functionality that is only available to the owner."
      },
      "transferOwnership(address)": {
        "details": "Transfers ownership of the contract to a new account (`newOwner`). Can only be called by the current owner."
      }
    },
    "version": 1
  },
  "userdoc": {
    "kind": "user",
    "methods": {},
    "version": 1
  },
  "storageLayout": {
    "storage": [
      {
        "astId": 8,
        "contract": "contracts/EnergyMarket.sol:EnergyMarket",
        "label": "_owner",
        "offset": 0,
        "slot": "0",
        "type": "t_address"
      },
      {
        "astId": 942,
        "contract": "contracts/EnergyMarket.sol:EnergyMarket",
        "label": "nzddToken",
        "offset": 0,
        "slot": "1",
        "type": "t_contract(IERC20)877"
      },
      {
        "astId": 946,
        "contract": "contracts/EnergyMarket.sol:EnergyMarket",
        "label": "userEnergyBalance",
        "offset": 0,
        "slot": "2",
        "type": "t_mapping(t_address,t_uint256)"
      },
      {
        "astId": 949,
        "contract": "contracts/EnergyMarket.sol:EnergyMarket",
        "label": "pricePerEnergyUnit",
        "offset": 0,
        "slot": "3",
        "type": "t_uint256"
      }
    ],
    "types": {
      "t_address": {
        "encoding": "inplace",
        "label": "address",
        "numberOfBytes": "20"
      },
      "t_contract(IERC20)877": {
        "encoding": "inplace",
        "label": "contract IERC20",
        "numberOfBytes": "20"
      },
      "t_mapping(t_address,t_uint256)": {
        "encoding": "mapping",
        "key": "t_address",
        "label": "mapping(address => uint256)",
        "numberOfBytes": "32",
        "value": "t_uint256"
      },
      "t_uint256": {
        "encoding": "inplace",
        "label": "uint256",
        "numberOfBytes": "32"
      }
    }
  }
}